{
  "contractName": "assetTracker",
  "abi": [
    {
      "constant": true,
      "inputs": [
        {
          "name": "_tokenId",
          "type": "uint256"
        }
      ],
      "name": "getApproved",
      "outputs": [
        {
          "name": "",
          "type": "address"
        }
      ],
      "payable": false,
      "stateMutability": "view",
      "type": "function"
    },
    {
      "constant": false,
      "inputs": [
        {
          "name": "_approved",
          "type": "address"
        },
        {
          "name": "_tokenId",
          "type": "uint256"
        }
      ],
      "name": "approve",
      "outputs": [],
      "payable": true,
      "stateMutability": "payable",
      "type": "function"
    },
    {
      "constant": false,
      "inputs": [
        {
          "name": "_from",
          "type": "address"
        },
        {
          "name": "_to",
          "type": "address"
        },
        {
          "name": "_tokenId",
          "type": "uint256"
        }
      ],
      "name": "transferFrom",
      "outputs": [],
      "payable": true,
      "stateMutability": "payable",
      "type": "function"
    },
    {
      "constant": false,
      "inputs": [
        {
          "name": "_from",
          "type": "address"
        },
        {
          "name": "_to",
          "type": "address"
        },
        {
          "name": "_tokenId",
          "type": "uint256"
        }
      ],
      "name": "safeTransferFrom",
      "outputs": [],
      "payable": true,
      "stateMutability": "payable",
      "type": "function"
    },
    {
      "constant": true,
      "inputs": [
        {
          "name": "_tokenId",
          "type": "uint256"
        }
      ],
      "name": "ownerOf",
      "outputs": [
        {
          "name": "",
          "type": "address"
        }
      ],
      "payable": false,
      "stateMutability": "view",
      "type": "function"
    },
    {
      "constant": true,
      "inputs": [
        {
          "name": "_owner",
          "type": "address"
        }
      ],
      "name": "balanceOf",
      "outputs": [
        {
          "name": "",
          "type": "uint256"
        }
      ],
      "payable": false,
      "stateMutability": "view",
      "type": "function"
    },
    {
      "constant": false,
      "inputs": [
        {
          "name": "_operator",
          "type": "address"
        },
        {
          "name": "_approved",
          "type": "bool"
        }
      ],
      "name": "setApprovalForAll",
      "outputs": [],
      "payable": false,
      "stateMutability": "nonpayable",
      "type": "function"
    },
    {
      "constant": true,
      "inputs": [
        {
          "name": "_owner",
          "type": "address"
        },
        {
          "name": "_operator",
          "type": "address"
        }
      ],
      "name": "isApprovedForAll",
      "outputs": [
        {
          "name": "",
          "type": "bool"
        }
      ],
      "payable": false,
      "stateMutability": "view",
      "type": "function"
    },
    {
      "inputs": [],
      "payable": false,
      "stateMutability": "nonpayable",
      "type": "constructor"
    },
    {
      "anonymous": false,
      "inputs": [
        {
          "indexed": true,
          "name": "_tokenId",
          "type": "uint256"
        },
        {
          "indexed": true,
          "name": "_identifier",
          "type": "string"
        },
        {
          "indexed": true,
          "name": "_code",
          "type": "string"
        }
      ],
      "name": "ItemRegistered",
      "type": "event"
    },
    {
      "anonymous": false,
      "inputs": [
        {
          "indexed": true,
          "name": "_from",
          "type": "address"
        },
        {
          "indexed": true,
          "name": "_to",
          "type": "address"
        },
        {
          "indexed": true,
          "name": "_tokenId",
          "type": "uint256"
        }
      ],
      "name": "Transfer",
      "type": "event"
    },
    {
      "anonymous": false,
      "inputs": [
        {
          "indexed": true,
          "name": "_owner",
          "type": "address"
        },
        {
          "indexed": true,
          "name": "_approved",
          "type": "address"
        },
        {
          "indexed": true,
          "name": "_tokenId",
          "type": "uint256"
        }
      ],
      "name": "Approval",
      "type": "event"
    },
    {
      "anonymous": false,
      "inputs": [
        {
          "indexed": true,
          "name": "_owner",
          "type": "address"
        },
        {
          "indexed": true,
          "name": "_operator",
          "type": "address"
        },
        {
          "indexed": false,
          "name": "_approved",
          "type": "bool"
        }
      ],
      "name": "ApprovalForAll",
      "type": "event"
    },
    {
      "constant": false,
      "inputs": [
        {
          "name": "_identifier",
          "type": "string"
        },
        {
          "name": "_code",
          "type": "string"
        },
        {
          "name": "_description",
          "type": "string"
        }
      ],
      "name": "registerItem",
      "outputs": [],
      "payable": false,
      "stateMutability": "nonpayable",
      "type": "function"
    },
    {
      "constant": true,
      "inputs": [
        {
          "name": "_tokenId",
          "type": "uint256"
        }
      ],
      "name": "getItemByToken",
      "outputs": [
        {
          "name": "identifier",
          "type": "string"
        },
        {
          "name": "code",
          "type": "string"
        },
        {
          "name": "description",
          "type": "string"
        }
      ],
      "payable": false,
      "stateMutability": "view",
      "type": "function"
    },
    {
      "constant": true,
      "inputs": [
        {
          "name": "_identifier",
          "type": "string"
        },
        {
          "name": "_code",
          "type": "string"
        }
      ],
      "name": "doesItemExist",
      "outputs": [
        {
          "name": "",
          "type": "bool"
        }
      ],
      "payable": false,
      "stateMutability": "view",
      "type": "function"
    },
    {
      "constant": false,
      "inputs": [
        {
          "name": "_tokenId",
          "type": "uint256"
        },
        {
          "name": "_price",
          "type": "uint256"
        }
      ],
      "name": "putOnSale",
      "outputs": [],
      "payable": false,
      "stateMutability": "nonpayable",
      "type": "function"
    },
    {
      "constant": true,
      "inputs": [
        {
          "name": "_tokenId",
          "type": "uint256"
        }
      ],
      "name": "isOnSale",
      "outputs": [
        {
          "name": "_onSale",
          "type": "bool"
        },
        {
          "name": "_price",
          "type": "uint256"
        }
      ],
      "payable": false,
      "stateMutability": "view",
      "type": "function"
    },
    {
      "constant": false,
      "inputs": [
        {
          "name": "_tokenId",
          "type": "uint256"
        },
        {
          "name": "_reservedBuyer",
          "type": "address"
        }
      ],
      "name": "setReserved",
      "outputs": [],
      "payable": false,
      "stateMutability": "nonpayable",
      "type": "function"
    },
    {
      "constant": true,
      "inputs": [
        {
          "name": "_tokenId",
          "type": "uint256"
        }
      ],
      "name": "getReserved",
      "outputs": [
        {
          "name": "",
          "type": "address"
        }
      ],
      "payable": false,
      "stateMutability": "view",
      "type": "function"
    },
    {
      "constant": false,
      "inputs": [
        {
          "name": "_tokenId",
          "type": "uint256"
        }
      ],
      "name": "buyItem",
      "outputs": [],
      "payable": true,
      "stateMutability": "payable",
      "type": "function"
    },
    {
      "constant": false,
      "inputs": [
        {
          "name": "_tokenId",
          "type": "uint256"
        }
      ],
      "name": "burnItem",
      "outputs": [],
      "payable": false,
      "stateMutability": "nonpayable",
      "type": "function"
    },
    {
      "constant": false,
      "inputs": [
        {
          "name": "_sure",
          "type": "uint256"
        }
      ],
      "name": "killContract",
      "outputs": [],
      "payable": false,
      "stateMutability": "nonpayable",
      "type": "function"
    }
  ],
  "bytecode": "0x6080604052600060055534801561001557600080fd5b503373ffffffffffffffffffffffffffffffffffffffff16600460009054906101000a905050506129998061004b6000396000f3fe6080604052600436106100fc576000357c0100000000000000000000000000000000000000000000000000000000900463ffffffff16806306aacc7e14610101578063081812fc1461028d578063095ea7b31461030857806323b872dd1461035657806336f7992b146103c457806342842e0e14610409578063576cc0f7146104775780635b3ba937146104b25780636352211e1461050d57806364249c0d1461058857806370a08231146106ff578063a22cb46514610764578063a2c2ed9b146107c1578063c7e1178e146107fc578063e25a71e1146109f2578063e7fb74c714610a6d578063e985e9c514610a9b578063f0f2805f14610b24575b600080fd5b34801561010d57600080fd5b5061013a6004803603602081101561012457600080fd5b8101908080359060200190929190505050610b7e565b60405180806020018060200180602001848103845287818151815260200191508051906020019080838360005b83811015610182578082015181840152602081019050610167565b50505050905090810190601f1680156101af5780820380516001836020036101000a031916815260200191505b50848103835286818151815260200191508051906020019080838360005b838110156101e85780820151818401526020810190506101cd565b50505050905090810190601f1680156102155780820380516001836020036101000a031916815260200191505b50848103825285818151815260200191508051906020019080838360005b8381101561024e578082015181840152602081019050610233565b50505050905090810190601f16801561027b5780820380516001836020036101000a031916815260200191505b50965050505050505060405180910390f35b34801561029957600080fd5b506102c6600480360360208110156102b057600080fd5b8101908080359060200190929190505050610da6565b604051808273ffffffffffffffffffffffffffffffffffffffff1673ffffffffffffffffffffffffffffffffffffffff16815260200191505060405180910390f35b6103546004803603604081101561031e57600080fd5b81019080803573ffffffffffffffffffffffffffffffffffffffff16906020019092919080359060200190929190505050610de3565b005b6103c26004803603606081101561036c57600080fd5b81019080803573ffffffffffffffffffffffffffffffffffffffff169060200190929190803573ffffffffffffffffffffffffffffffffffffffff16906020019092919080359060200190929190505050610f00565b005b3480156103d057600080fd5b50610407600480360360408110156103e757600080fd5b810190808035906020019092919080359060200190929190505050611001565b005b6104756004803603606081101561041f57600080fd5b81019080803573ffffffffffffffffffffffffffffffffffffffff169060200190929190803573ffffffffffffffffffffffffffffffffffffffff1690602001909291908035906020019092919050505061111a565b005b34801561048357600080fd5b506104b06004803603602081101561049a57600080fd5b810190808035906020019092919050505061112a565b005b3480156104be57600080fd5b5061050b600480360360408110156104d557600080fd5b8101908080359060200190929190803573ffffffffffffffffffffffffffffffffffffffff16906020019092919050505061176c565b005b34801561051957600080fd5b506105466004803603602081101561053057600080fd5b81019080803590602001909291905050506118bf565b604051808273ffffffffffffffffffffffffffffffffffffffff1673ffffffffffffffffffffffffffffffffffffffff16815260200191505060405180910390f35b34801561059457600080fd5b506106e5600480360360408110156105ab57600080fd5b81019080803590602001906401000000008111156105c857600080fd5b8201836020820111156105da57600080fd5b803590602001918460018302840111640100000000831117156105fc57600080fd5b91908080601f016020809104026020016040519081016040528093929190818152602001838380828437600081840152601f19601f8201169050808301925050505050505091929192908035906020019064010000000081111561065f57600080fd5b82018360208201111561067157600080fd5b8035906020019184600183028401116401000000008311171561069357600080fd5b91908080601f016020809104026020016040519081016040528093929190818152602001838380828437600081840152601f19601f8201169050808301925050505050505091929192905050506118fb565b604051808215151515815260200191505060405180910390f35b34801561070b57600080fd5b5061074e6004803603602081101561072257600080fd5b81019080803573ffffffffffffffffffffffffffffffffffffffff1690602001909291905050506119ee565b6040518082815260200191505060405180910390f35b34801561077057600080fd5b506107bf6004803603604081101561078757600080fd5b81019080803573ffffffffffffffffffffffffffffffffffffffff169060200190929190803515159060200190929190505050611b01565b005b3480156107cd57600080fd5b506107fa600480360360208110156107e457600080fd5b8101908080359060200190929190505050611c02565b005b34801561080857600080fd5b506109f06004803603606081101561081f57600080fd5b810190808035906020019064010000000081111561083c57600080fd5b82018360208201111561084e57600080fd5b8035906020019184600183028401116401000000008311171561087057600080fd5b91908080601f016020809104026020016040519081016040528093929190818152602001838380828437600081840152601f19601f820116905080830192505050505050509192919290803590602001906401000000008111156108d357600080fd5b8201836020820111156108e557600080fd5b8035906020019184600183028401116401000000008311171561090757600080fd5b91908080601f016020809104026020016040519081016040528093929190818152602001838380828437600081840152601f19601f8201169050808301925050505050505091929192908035906020019064010000000081111561096a57600080fd5b82018360208201111561097c57600080fd5b8035906020019184600183028401116401000000008311171561099e57600080fd5b91908080601f016020809104026020016040519081016040528093929190818152602001838380828437600081840152601f19601f820116905080830192505050505050509192919290505050611cef565b005b3480156109fe57600080fd5b50610a2b60048036036020811015610a1557600080fd5b8101908080359060200190929190505050612085565b604051808273ffffffffffffffffffffffffffffffffffffffff1673ffffffffffffffffffffffffffffffffffffffff16815260200191505060405180910390f35b610a9960048036036020811015610a8357600080fd5b81019080803590602001909291905050506120c2565b005b348015610aa757600080fd5b50610b0a60048036036040811015610abe57600080fd5b81019080803573ffffffffffffffffffffffffffffffffffffffff169060200190929190803573ffffffffffffffffffffffffffffffffffffffff169060200190929190505050612480565b604051808215151515815260200191505060405180910390f35b348015610b3057600080fd5b50610b5d60048036036020811015610b4757600080fd5b8101908080359060200190929190505050612514565b60405180831515151581526020018281526020019250505060405180910390f35b6060806060600660008581526020019081526020016000206000016006600086815260200190815260200160002060010160066000878152602001908152602001600020600201828054600181600116156101000203166002900480601f016020809104026020016040519081016040528092919081815260200182805460018160011615610100020316600290048015610c5a5780601f10610c2f57610100808354040283529160200191610c5a565b820191906000526020600020905b815481529060010190602001808311610c3d57829003601f168201915b50505050509250818054600181600116156101000203166002900480601f016020809104026020016040519081016040528092919081815260200182805460018160011615610100020316600290048015610cf65780601f10610ccb57610100808354040283529160200191610cf6565b820191906000526020600020905b815481529060010190602001808311610cd957829003601f168201915b50505050509150808054600181600116156101000203166002900480601f016020809104026020016040519081016040528092919081815260200182805460018160011615610100020316600290048015610d925780601f10610d6757610100808354040283529160200191610d92565b820191906000526020600020905b815481529060010190602001808311610d7557829003601f168201915b505050505090509250925092509193909250565b60006002600083815260200190815260200160002060009054906101000a900473ffffffffffffffffffffffffffffffffffffffff169050919050565b3373ffffffffffffffffffffffffffffffffffffffff1660008083815260200190815260200160002060009054906101000a900473ffffffffffffffffffffffffffffffffffffffff1673ffffffffffffffffffffffffffffffffffffffff16141515610e4f57600080fd5b816002600083815260200190815260200160002060006101000a81548173ffffffffffffffffffffffffffffffffffffffff021916908373ffffffffffffffffffffffffffffffffffffffff160217905550808273ffffffffffffffffffffffffffffffffffffffff163373ffffffffffffffffffffffffffffffffffffffff167f8c5be1e5ebec7d5bd14f71427d1e84f3dd0314c0f7b2291e5b200ac8c7c3b92560405160405180910390a45050565b338160008082815260200190815260200160002060009054906101000a900473ffffffffffffffffffffffffffffffffffffffff1673ffffffffffffffffffffffffffffffffffffffff168273ffffffffffffffffffffffffffffffffffffffff161480610fa157508173ffffffffffffffffffffffffffffffffffffffff16610f8982610da6565b73ffffffffffffffffffffffffffffffffffffffff16145b80610fe45750610fe360008083815260200190815260200160002060009054906101000a900473ffffffffffffffffffffffffffffffffffffffff1683612480565b5b1515610fef57600080fd5b610ffa858585612562565b5050505050565b8160008082815260200190815260200160002060009054906101000a900473ffffffffffffffffffffffffffffffffffffffff1673ffffffffffffffffffffffffffffffffffffffff163373ffffffffffffffffffffffffffffffffffffffff161415156110fd576040517f08c379a00000000000000000000000000000000000000000000000000000000081526004018080602001828103825260278152602001807f4f6e6c7920746865206f776e6572206f662074686520746f6b656e2063616e2081526020017f646f20746869730000000000000000000000000000000000000000000000000081525060400191505060405180910390fd5b816008600085815260200190815260200160002081905550505050565b611125838383612562565b505050565b8060008082815260200190815260200160002060009054906101000a900473ffffffffffffffffffffffffffffffffffffffff1673ffffffffffffffffffffffffffffffffffffffff163373ffffffffffffffffffffffffffffffffffffffff16141515611226576040517f08c379a00000000000000000000000000000000000000000000000000000000081526004018080602001828103825260278152602001807f4f6e6c7920746865206f776e6572206f662074686520746f6b656e2063616e2081526020017f646f20746869730000000000000000000000000000000000000000000000000081525060400191505060405180910390fd5b61122e6128a6565b6006600084815260200190815260200160002060606040519081016040529081600082018054600181600116156101000203166002900480601f0160208091040260200160405190810160405280929190818152602001828054600181600116156101000203166002900480156112e65780601f106112bb576101008083540402835291602001916112e6565b820191906000526020600020905b8154815290600101906020018083116112c957829003601f168201915b50505050508152602001600182018054600181600116156101000203166002900480601f0160208091040260200160405190810160405280929190818152602001828054600181600116156101000203166002900480156113885780601f1061135d57610100808354040283529160200191611388565b820191906000526020600020905b81548152906001019060200180831161136b57829003601f168201915b50505050508152602001600282018054600181600116156101000203166002900480601f01602080910402602001604051908101604052809291908181526020018280546001816001161561010002031660029004801561142a5780601f106113ff5761010080835404028352916020019161142a565b820191906000526020600020905b81548152906001019060200180831161140d57829003601f168201915b5050505050815250509050600060076000836000015184602001516040516020018083805190602001908083835b60208310151561147d5780518252602082019150602081019050602083039250611458565b6001836020036101000a03801982511681845116808217855250505050505090500182805190602001908083835b6020831015156114d057805182526020820191506020810190506020830392506114ab565b6001836020036101000a0380198251168184511680821785525050505050509050019250505060405160208183030381529060405280519060200120815260200190815260200160002060006101000a81548160ff0219169083151502179055506115396128a6565b602060405190810160405280600081525081600001819052506020604051908101604052806000815250816020018190525060206040519081016040528060008152508160400181905250806006600086815260200190815260200160002060008201518160000190805190602001906115b49291906128c8565b5060208201518160010190805190602001906115d19291906128c8565b5060408201518160020190805190602001906115ee9291906128c8565b509050506000600860008681526020019081526020016000208190555060056000815480929190600190039190505550600080600086815260200190815260200160002060006101000a81548173ffffffffffffffffffffffffffffffffffffffff021916908373ffffffffffffffffffffffffffffffffffffffff160217905550600160003373ffffffffffffffffffffffffffffffffffffffff1673ffffffffffffffffffffffffffffffffffffffff168152602001908152602001600020600081548092919060019003919050555060006002600086815260200190815260200160002060006101000a81548173ffffffffffffffffffffffffffffffffffffffff021916908373ffffffffffffffffffffffffffffffffffffffff16021790555060006009600086815260200190815260200160002060006101000a81548173ffffffffffffffffffffffffffffffffffffffff021916908373ffffffffffffffffffffffffffffffffffffffff16021790555050505050565b8160008082815260200190815260200160002060009054906101000a900473ffffffffffffffffffffffffffffffffffffffff1673ffffffffffffffffffffffffffffffffffffffff163373ffffffffffffffffffffffffffffffffffffffff16141515611868576040517f08c379a00000000000000000000000000000000000000000000000000000000081526004018080602001828103825260278152602001807f4f6e6c7920746865206f776e6572206f662074686520746f6b656e2063616e2081526020017f646f20746869730000000000000000000000000000000000000000000000000081525060400191505060405180910390fd5b816009600085815260200190815260200160002060006101000a81548173ffffffffffffffffffffffffffffffffffffffff021916908373ffffffffffffffffffffffffffffffffffffffff160217905550505050565b600080600083815260200190815260200160002060009054906101000a900473ffffffffffffffffffffffffffffffffffffffff169050919050565b60006007600084846040516020018083805190602001908083835b60208310151561193b5780518252602082019150602081019050602083039250611916565b6001836020036101000a03801982511681845116808217855250505050505090500182805190602001908083835b60208310151561198e5780518252602082019150602081019050602083039250611969565b6001836020036101000a0380198251168184511680821785525050505050509050019250505060405160208183030381529060405280519060200120815260200190815260200160002060009054906101000a900460ff16905092915050565b60008073ffffffffffffffffffffffffffffffffffffffff168273ffffffffffffffffffffffffffffffffffffffff1614151515611aba576040517f08c379a00000000000000000000000000000000000000000000000000000000081526004018080602001828103825260228152602001807f63616e6e6f742061736b206f662062616c616e6365206f66206164647265737381526020017f203000000000000000000000000000000000000000000000000000000000000081525060400191505060405180910390fd5b600160008373ffffffffffffffffffffffffffffffffffffffff1673ffffffffffffffffffffffffffffffffffffffff168152602001908152602001600020549050919050565b80600360003373ffffffffffffffffffffffffffffffffffffffff1673ffffffffffffffffffffffffffffffffffffffff16815260200190815260200160002060008473ffffffffffffffffffffffffffffffffffffffff1673ffffffffffffffffffffffffffffffffffffffff16815260200190815260200160002060006101000a81548160ff0219169083151502179055508173ffffffffffffffffffffffffffffffffffffffff163373ffffffffffffffffffffffffffffffffffffffff167f17307eab39ab6107e8899845ad3d59bd9653f200f220920489ca2b5937696c3183604051808215151515815260200191505060405180910390a35050565b600460009054906101000a900473ffffffffffffffffffffffffffffffffffffffff1673ffffffffffffffffffffffffffffffffffffffff163373ffffffffffffffffffffffffffffffffffffffff16141515611c5e57600080fd5b600181141515611cd6576040517f08c379a00000000000000000000000000000000000000000000000000000000081526004018080602001828103825260148152602001807f5f73757265206e6565647320746f20626520312e00000000000000000000000081525060200191505060405180910390fd5b3373ffffffffffffffffffffffffffffffffffffffff16ff5b6007600084846040516020018083805190602001908083835b602083101515611d2d5780518252602082019150602081019050602083039250611d08565b6001836020036101000a03801982511681845116808217855250505050505090500182805190602001908083835b602083101515611d805780518252602082019150602081019050602083039250611d5b565b6001836020036101000a0380198251168184511680821785525050505050509050019250505060405160208183030381529060405280519060200120815260200190815260200160002060009054906101000a900460ff16151515611de457600080fd5b611dec6128a6565b83816000018190525082816020018190525081816040018190525060016007600086866040516020018083805190602001908083835b602083101515611e475780518252602082019150602081019050602083039250611e22565b6001836020036101000a03801982511681845116808217855250505050505090500182805190602001908083835b602083101515611e9a5780518252602082019150602081019050602083039250611e75565b6001836020036101000a0380198251168184511680821785525050505050509050019250505060405160208183030381529060405280519060200120815260200190815260200160002060006101000a81548160ff0219169083151502179055506005600081548092919060010191905055506000600554905081600660008381526020019081526020016000206000820151816000019080519060200190611f449291906128c8565b506020820151816001019080519060200190611f619291906128c8565b506040820151816002019080519060200190611f7e9291906128c8565b50905050611f8b816126ad565b836040518082805190602001908083835b602083101515611fc15780518252602082019150602081019050602083039250611f9c565b6001836020036101000a0380198251168184511680821785525050505050509050019150506040518091039020856040518082805190602001908083835b6020831015156120245780518252602082019150602081019050602083039250611fff565b6001836020036101000a0380198251168184511680821785525050505050509050019150506040518091039020827fb96726ae9eb2b9ea6ddeaacb266c5a9aea29bd41dbc6c911d1f8199fdf0e54fb60405160405180910390a45050505050565b60006009600083815260200190815260200160002060009054906101000a900473ffffffffffffffffffffffffffffffffffffffff169050919050565b600060086000838152602001908152602001600020541180156120f8575060086000828152602001908152602001600020543410155b80156121cc57503373ffffffffffffffffffffffffffffffffffffffff166009600083815260200190815260200160002060009054906101000a900473ffffffffffffffffffffffffffffffffffffffff1673ffffffffffffffffffffffffffffffffffffffff1614806121cb5750600073ffffffffffffffffffffffffffffffffffffffff166009600083815260200190815260200160002060009054906101000a900473ffffffffffffffffffffffffffffffffffffffff1673ffffffffffffffffffffffffffffffffffffffff16145b5b15156122b2576040517f08c379a00000000000000000000000000000000000000000000000000000000081526004018080602001828103825260798152602001807f6d616b652073757265207468617420746865206974656d206973206f6e20736181526020017f6c652c207468652076616c756520796f752073656e642069732068696768657281526020017f207468616e207468652073656c6c696e672070726963652c20616e642074686181526020017f7420796f752061726520616c6c6f77656420746f206275792e0000000000000081525060800191505060405180910390fd5b60006008600083815260200190815260200160002054905060003073ffffffffffffffffffffffffffffffffffffffff16636352211e846040518263ffffffff167c01000000000000000000000000000000000000000000000000000000000281526004018082815260200191505060206040518083038186803b15801561233957600080fd5b505afa15801561234d573d6000803e3d6000fd5b505050506040513d602081101561236357600080fd5b81019080805190602001909291905050509050600060086000858152602001908152602001600020505060006009600085815260200190815260200160002060006101000a81548173ffffffffffffffffffffffffffffffffffffffff021916908373ffffffffffffffffffffffffffffffffffffffff1602179055506123eb813385612562565b8073ffffffffffffffffffffffffffffffffffffffff166108fc839081150290604051600060405180830381858888f19350505050158015612431573d6000803e3d6000fd5b503373ffffffffffffffffffffffffffffffffffffffff166108fc8334039081150290604051600060405180830381858888f1935050505015801561247a573d6000803e3d6000fd5b50505050565b6000600360008473ffffffffffffffffffffffffffffffffffffffff1673ffffffffffffffffffffffffffffffffffffffff16815260200190815260200160002060008373ffffffffffffffffffffffffffffffffffffffff1673ffffffffffffffffffffffffffffffffffffffff16815260200190815260200160002060009054906101000a900460ff16905092915050565b600080600060086000858152602001908152602001600020541415612542576000808090509150915061255d565b60016008600085815260200190815260200160002054915091505b915091565b8160008083815260200190815260200160002060006101000a81548173ffffffffffffffffffffffffffffffffffffffff021916908373ffffffffffffffffffffffffffffffffffffffff16021790555060018060008573ffffffffffffffffffffffffffffffffffffffff1673ffffffffffffffffffffffffffffffffffffffff1681526020019081526020016000206000828254039250508190555060018060008473ffffffffffffffffffffffffffffffffffffffff1673ffffffffffffffffffffffffffffffffffffffff16815260200190815260200160002060008282540192505081905550808273ffffffffffffffffffffffffffffffffffffffff168473ffffffffffffffffffffffffffffffffffffffff167fddf252ad1be2c89b69c2b068fc378daa952ba7f163c4a11628f55a4df523b3ef60405160405180910390a4505050565b600073ffffffffffffffffffffffffffffffffffffffff1660008083815260200190815260200160002060009054906101000a900473ffffffffffffffffffffffffffffffffffffffff1673ffffffffffffffffffffffffffffffffffffffff161415156127a9576040517f08c379a000000000000000000000000000000000000000000000000000000000815260040180806020018281038252602a8152602001807f7468697320746f6b656e2062656c6f6e677320746f20736f6d656f6e6520656c81526020017f736520616c72656164790000000000000000000000000000000000000000000081525060400191505060405180910390fd5b3360008083815260200190815260200160002060006101000a81548173ffffffffffffffffffffffffffffffffffffffff021916908373ffffffffffffffffffffffffffffffffffffffff16021790555060018060003373ffffffffffffffffffffffffffffffffffffffff1673ffffffffffffffffffffffffffffffffffffffff16815260200190815260200160002060008282540192505081905550803373ffffffffffffffffffffffffffffffffffffffff16600073ffffffffffffffffffffffffffffffffffffffff167fddf252ad1be2c89b69c2b068fc378daa952ba7f163c4a11628f55a4df523b3ef60405160405180910390a450565b6060604051908101604052806060815260200160608152602001606081525090565b828054600181600116156101000203166002900490600052602060002090601f016020900481019282601f1061290957805160ff1916838001178555612937565b82800160010185558215612937579182015b8281111561293657825182559160200191906001019061291b565b5b5090506129449190612948565b5090565b61296a91905b8082111561296657600081600090555060010161294e565b5090565b9056fea165627a7a72305820a0965f8f2bffd222940b0e9d3518acc00ffeec993022a9f3150a7f5f6aa0c4dd0029",
  "source": "pragma solidity ^0.5.0;\r\n\r\nimport './ERC721Token.sol';\r\n\r\ncontract assetTracker is ERC721Token {\r\n    \r\n    // Create owner variable\r\n    address private owner;\r\n    \r\n    // Constructor for initializing the contract and setting the owner\r\n    constructor() public {\r\n        owner == msg.sender;\r\n    }\r\n    \r\n    modifier onlyOwner() {\r\n        require(msg.sender == owner);\r\n        _;\r\n    }\r\n    \r\n    // Set a counter to track total amount of tokens/items in existence\r\n    uint256 private tokenCounter = 0;\r\n    \r\n    // Create a struct to allow item creation/registration\r\n    struct Item {\r\n        string identifier;\r\n        string code;\r\n        string description;\r\n    }\r\n    \r\n    // Map a tokenId to an Item\r\n    mapping (uint256 => Item) tokenIdtoItem;\r\n    // Map a hash of item details to a bool that allows us to check if the item already exists\r\n    mapping (bytes32 => bool) itemExists;\r\n    // Map whether an item (tokenId) is on sale (0 value means no);\r\n    mapping (uint256 => uint256) itemsOnSale;\r\n    // Map tokenId to owner that has reserved rights to buy\r\n    mapping (uint256 => address) reservedBy;\r\n    \r\n    modifier onlyItemOwner(uint256 _tokenId) {\r\n        require(msg.sender == tokenToOwner[_tokenId], \"Only the owner of the token can do this\");\r\n        _;\r\n    }\r\n    \r\n    event ItemRegistered(uint256 indexed _tokenId, string indexed _identifier, string indexed _code);\r\n    \r\n    // Register an item using an identifier type (no., PID, barcode, etc.), the actual identifier/code, and a description\r\n    function registerItem(string memory _identifier, string memory _code, string memory _description) public {\r\n        // Make sure the item does not already exists/is not already registered\r\n        require(!itemExists[keccak256(abi.encodePacked(_identifier,_code))]);\r\n        // Create an Item struct in memory that stores the item data\r\n        Item memory newItem;\r\n        newItem.identifier = _identifier;\r\n        newItem.code = _code;\r\n        newItem.description = _description;\r\n        // Map hash of item details to true/bring item into existence\r\n        itemExists[keccak256(abi.encodePacked(_identifier,_code))] = true;\r\n        // Increment tokenCounter;\r\n        tokenCounter ++;\r\n        // Set unique tokenId using tokenCounter\r\n        uint256 tokenId = tokenCounter;\r\n        // Map the tokenId to the item\r\n        tokenIdtoItem[tokenId] = newItem;\r\n        // Mint the token using ERC721 mint method, which checks if the token is already owned and if not sets it to the new owner\r\n        ERC721Token.mint(tokenId);\r\n        //Emit event\r\n        emit ItemRegistered(tokenId, _identifier, _code);\r\n    }\r\n    \r\n    // Get item details by providing a tokenId\r\n    function getItemByToken(uint256 _tokenId) public view returns (string memory identifier, string memory code, string memory description) {\r\n        return(tokenIdtoItem[_tokenId].identifier,tokenIdtoItem[_tokenId].code,tokenIdtoItem[_tokenId].description);\r\n    }\r\n    \r\n    // Check if item already exists\r\n    function doesItemExist(string memory _identifier, string memory _code) public view returns (bool) {\r\n        return itemExists[keccak256(abi.encodePacked(_identifier,_code))];\r\n    }\r\n    \r\n    // Allow the owner of an item to put it on sale\r\n    function putOnSale(uint256 _tokenId, uint256 _price) public onlyItemOwner(_tokenId) {\r\n        itemsOnSale[_tokenId] = _price;\r\n    }\r\n\r\n    // Allow any user to see if an item is on sale\r\n    function isOnSale(uint256 _tokenId) public view returns(bool _onSale, uint256 _price) {\r\n        if(itemsOnSale[_tokenId] == 0) {\r\n            return(false, 0);\r\n        }\r\n        else {\r\n            return(true, itemsOnSale[_tokenId]);\r\n        }\r\n    }\r\n    \r\n    // Allow the owner of an item to limit buy option to somebody that has reserved the right\r\n    function setReserved(uint256 _tokenId, address _reservedBuyer) public onlyItemOwner(_tokenId) {\r\n        reservedBy[_tokenId] = _reservedBuyer;\r\n    }\r\n    \r\n    function getReserved(uint256 _tokenId) public view returns(address) {\r\n        return reservedBy[_tokenId];\r\n    }\r\n    \r\n    // Allow somebody to buy an item if it is on sale\r\n    function buyItem(uint256 _tokenId) public payable {\r\n        // Require that the item is on sale, that the msg.value send is higher than the price, and that there are no reservation or that the msg.sender has the reservation\r\n        require(itemsOnSale[_tokenId] > 0 && msg.value >= itemsOnSale[_tokenId] && (reservedBy[_tokenId] == msg.sender || reservedBy[_tokenId] == address(0)), \"make sure that the item is on sale, the value you send is higher than the selling price, and that you are allowed to buy.\");\r\n        uint256 salePrice = itemsOnSale[_tokenId];\r\n        // We need to convert address to address payabale of the owner of the token\r\n        address payable seller = address(uint160(this.ownerOf(_tokenId)));\r\n        itemsOnSale[_tokenId] == 0;\r\n        // Clear reservation\r\n        reservedBy[_tokenId] = address(0);\r\n        // Transfer token\r\n        transferFromHelper(seller, msg.sender, _tokenId);\r\n        // Transfer money to seller\r\n        seller.transfer(salePrice);\r\n        // Return change\r\n        msg.sender.transfer(msg.value - salePrice);\r\n    }\r\n    \r\n    // Allow the owner of an item to burn it out of existence\r\n    function burnItem(uint256 _tokenId) public onlyItemOwner(_tokenId) {\r\n        Item memory ogItem = tokenIdtoItem[_tokenId];\r\n        // Delete item from existence\r\n        itemExists[keccak256(abi.encodePacked(ogItem.identifier,ogItem.code))] = false;\r\n        // Create an empty Item to replace the struct\r\n        Item memory burnedItem;\r\n        burnedItem.identifier = \"\";\r\n        burnedItem.code = \"\";\r\n        burnedItem.description = \"\";\r\n        // Delete the tokenId to item reference by replacing it with the burnItem struct\r\n        tokenIdtoItem[_tokenId] = burnedItem;\r\n        // Take item of sale if on sale\r\n        itemsOnSale[_tokenId] = 0;\r\n        // Decrease tokenCounter by 1\r\n        tokenCounter --;\r\n        // Delete token to owner reference\r\n        tokenToOwner[_tokenId] = address(0);\r\n        // Lower token balance of owner\r\n        ownerToBalance[msg.sender] --;\r\n        // Clear approvals regarding the tokenId\r\n        tokenToApproved[_tokenId] = address(0);\r\n        // Clear reservation\r\n        reservedBy[_tokenId] = address(0);\r\n    }\r\n    \r\n    function killContract(uint _sure) public onlyOwner {\r\n        require(_sure == 1, \"_sure needs to be 1.\");\r\n        selfdestruct(msg.sender);\r\n    } \r\n    \r\n    \r\n}",
  "sourcePath": "C:/Users/Valentijn.vd.Hout/Desktop/Development/Truffle_practice/MetaCoin/contracts/assetTracker.sol",
  "compiler": {
    "name": "solc",
    "version": "0.5.0+commit.1d4f565a.Emscripten.clang"
  },
  "schemaVersion": "3.0.0",
  "updatedAt": "2018-12-22T12:46:08.629Z",
  "devdoc": {
    "methods": {
      "approve(address,uint256)": {
        "params": {
          "_tokenId": "The NFT to approve"
        }
      },
      "balanceOf(address)": {
        "return": "The number of NFTs owned by `_owner`, possibly zero"
      },
      "getApproved(uint256)": {
        "return": "The approved address for this NFT, or the zero address if there is none"
      },
      "isApprovedForAll(address,address)": {
        "return": "True if `_operator` is an approved operator for `_owner`, false otherwise"
      },
      "ownerOf(uint256)": {
        "return": "The address of the owner of the NFT"
      },
      "safeTransferFrom(address,address,uint256)": {
        "params": {
          "_tokenId": "The NFT to transfer"
        }
      },
      "setApprovalForAll(address,bool)": {
        "params": {
          "_approved": "True if the operator is approved, false to revoke approval"
        }
      },
      "transferFrom(address,address,uint256)": {
        "params": {
          "_tokenId": "The NFT to transfer"
        }
      }
    }
  },
  "userdoc": {
    "methods": {}
  }
}